:200000000C9438400C9469400C9469400C9469400C9469400C9469400C9469400C946940C9
:200020000C9469400C9469400C9469400C9469400C9469400C9469400C9469400C94694078
:200040000C9469400C94AC850C9469400C9469400C9469400C9469400C9469400C9479847C
:200060000C9469400C94ED840C94C3840C9469400C9469400C9469400C9469400C946940D2
:200080000C947E850C9469400C9469400C9469400C9469400C9469400C9469400C94DA8508
:2000A0000C9469400C9469400C9450850C9469400C9469400C9469400C9469400C942285CE
:2000C0000C9469400C9469400C9469400C9469400C9469400C9469400C9469400C946940D8
:2000E0000C9469400C944F660C94FA730C942D460C94BE660C949B4F0C94EA660C94A94279
:200100000C9455540C94E1430C9456570C94BC420C94E2690C94B7810C941E4D0C943151F7
:200120000C94F9580C9438570C94E2680C9468540C9483570C94E9430C9418630C9487577A
:200140000C945D440C9471440C94D4490C94C27A0C94D37E0C946F540C94E44A0C94B642B6
:200160000C947F670C949E7D0C94045F0C94367B0C949C4F0C94F0610C94CB4F0C94147B85
:200180000C94CE460C941C440C94AC420C94EE7A0C94B87A0C94C4420C94AB660C94B07626
:2001A0000C94A1420C94F8430C94467B0C947F580C941C590C94185D0C9440460C94F155D3
:2001C0000C94087B0C94294F0C94D2420C9469640C94CA5E0C9495720C944F4E0C94995688
:2001E0000C9455580C94C6480C94D8420C94968A0C947B440C941E460C9436480C9479658B
:200200000C94624F0C940C760C94C44F0C94FE740C9401570C94BC7A0C94F47A0C94DF57F4
:200220000C94C74E0C9402440C94B2420C94D07A0C94F1450C94B3690C9497420C94D766BD
:200240000C9434580C940E590C9422830C9414440C94287B0C943A7B0C94B97F0C94465484
:200260000C9400580C94B27A0C94EA580C94E44E0C94587A0C94E27D0C94148F0C94DC4294
:200280000C9449440C94855F0C94CE420C94F2580C942C680C9488650C94D8610C94238234
:2002A0000C9415590C9492660C9426440C9481460C944E460C949C540C94D7420C947F5734
:2002C0000C947B570C9400590C94B5560C9467440C94A0820C940C440C9481570C94B472CD
:2002E0000C947D570C9450740C94EE430C946F800C94B84F0C945E810C9430440C94046385
:200300000C947F480C94AC4F0C9453440C94227B0C946B750C9401530C94F2400C94CA4275
:200320000C94F1400C94D3580C94DA7A0C94C0420C942B710C94077E0C9475840C94EE62A1
:200340000C943F540C9495580C9404570C94407B0C94C0760C9407590C94A5420C94D67A3A
:200360000C94027B0C94E07A0C943A440C94F04D0C9485570C940D7E0C949D420C949F64A2
:200380000C94FB7F0C949F5F0C94A47A0C94465B0C9489570C9471630000010109000001A6
:2003A00000010123000002000B1C1001E529000B1C1001E550000B1C1001E577000B1C1098
:2003C00001E59E000B1C1001E5C5000B1C1001E5EC000B1C1001E513010B1C1001E53A0125
:2003E0000B1C1001E561010B1C1001E588010B1C1001E5AF0117052306E9BE01060500FD16
:20040000FCC2010B1C1001E5E9011B2B2304D67B020427231BD88F021B2B2304D621031904
:200420002B2306D6A8031B272304D82C041B2B2304D6BE041B2B2304D650051B292304D698
:20044000DB051B2B2304D66D061B2B2304D6FF0605170902E10E070B1C1001E535070B1C21
:200460001001E55C070B1C1001E583070B1C1001E5AA070B1C1001E5D1070B1C1001E5F8A4
:20048000071B292304D683081B292304D80E0919182304E959091B292304D8E409192B23F5
:2004A00004D66B0A19292304D6EC0A1B2B2304D67E0B1B272304D8020C0413231BEC0C0C44
:2004C0001B292304D8970C1B292304D6220D19292304D8A30D1B292304D62E0E1B16230400
:2004E000E9790E1B182304E9CA0E1B292304D6550F1B292304D6E00F19162304E925101B0D
:20050000292304D8B01019292304D831111B152304EC78111B292304D803121B292304D809
:200520008E121B272304D812131B292304D89D131B2B2304D62F140B1C1001E556140B1C8E
:200540001001E57D140B1C1001E5A4140B1C1001E5CB1417042306FDD7140B1C1001E5FEFC
:20056000141B292304D689151B292304D8141619182304E95F161B292304D8EA16192B23BB
:2005800004D6711719292304D6F2171B2B2304D684181B272304D808190413231BEC121904
:2005A0001B292304D89D191B292304D6281A19292304D8A91A1B292304D6341B1B162304D3
:2005C000E97F1B1B182304E9D01B1B292304D65B1C1B292304D6E61C19162304E92B1D1BCD
:2005E000292304D8B61D19292304D8371E1B152304EC7E1E1B292304D8091F1B292304D8DD
:20060000941F1B272304D818201B292304D8A3201B2B2304D635210B1C1001E55C210B1C4E
:200620001001E583210B1C1001E5AA210B1C1001E50000FFF00600C0180300600C0180302E
:200640000600C0180300600C0180300600C0180300600C0180300600FFF0FFF00600C018DC
:200660000300600C0180300600C0180300600C0180300600C0180300600C0180300600FF59
:20068000F0FFF00600C0180300600C0180300600C0180300600C0180300600C0180300603E
:2006A0000C0180300600FFF0FFF00600C0180300600C0180300600C0180300600C0180309D
:2006C0000600C0180300600C0180300600FFF0FFF00600C0180300600C0180300600C0185C
:2006E0000300600C0180300600C0180300600C0180300600FFF0FFF00600C0180300600CAB
:200700000180300600C0180300600C0180300600C0180300600C0180300600FFF0FFF00642
:2007200000C0180300600C0180300600C0180300600C0180300600C0180300600C018030C5
:200740000600FFF0FFF00600C0180300600C0180300600C0180300600C0180300600C018DB
:200760000300600C0180300600FFF0FFF00600C0180300600C0180300600C0180300600C2A
:200780000180300600C0180300600C0180300600FFF0FFF00600C0180300600C01803006C2
:2007A00000C0180300600C0180300600C0180300600C0180300600FFF0FFF00600C018037E
:2007C00000600C0180300600C0180300600C0180300600C0180300600C0180300600FFF00B
:2007E000000000FFFFFBFFFFFBFFFFE00000007BFFDE78FFF00600C0180300600C0180306C
:200800000600C0180300600C0180300600C0180300600C0180300600FFF01FFFFF07FFFFC5
:20082000F17FFFFD77FFFF7F00001FE00003FC00007F80000FF00001FE00003FC00007F85F
:200840000000FF00001FE00003FC00007F80000FF00001FE00003FC00007F000007C00002C
:20086000060000003000001F000007F00001FE00003FC00007F80000FF00001FE00003FC32
:2008800000007F80000FF00001FE00003FC00007F80000FF00001FE00003FC00007F7FFF63
:2008A000F75FFFFF47FFFFF07FFFFC0027FFFFFFFFFFFFFFF73037FFFFFFFFFFFFFFF720A7
:2008C0001FFFFF07FFFFF07FFFFD07FFFF7000001E000003C000007800000F000001E000CD
:2008E000003C000007800000F000001E000003C000007800000F000001E000003C000007B9
:2009000080000071FFFFF67FFFFF37FFFFC7000000F000001E000003C000007800000F0021
:200920000001E000003C000007800000F000001E000003C000007800000F000001E00000DA
:200940003C0000077FFFF05FFFFF07FFFFF07FFFFC007FFFFC7FFFFF1FFFFF47FFFF700051
:20096000007800003C00001E00000F000007800003C00001E00000F000007800003C0000C7
:200980001E00000F000007800003C00001E0000077FFFFDFFFFFF1FFFFF6000007000007BA
:2009A000800003C00001E00000F000007800003C00001E00000F000007800003C00001E017
:2009C0000000F000007800003C00001E7FFFF77FFFFD7FFFFF1FFFFF004000005C00001F10
:2009E000C00007F80000FF00001FE00003FC00007F80000FF00001FE00003FC00007F80040
:200A000000FF00001FE00003FC00007F80000FF00001FC00001F7FFFFD9FFFFFC1FFFFF6F2
:200A2000000001C000007800000F000001E000003C000007800000F000001E000003C000F9
:200A4000007800000F000001E000003C000007800000F000001E000001C00000101FFFFF6F
:200A600007FFFFF17FFFFC77FFFF0F000001E000003C000007800000F000001E000003C00D
:200A800000007800000F000001E000003C000007800000F000001E000003C00000700000EA
:200AA0000DFFFFF07FFFFF07FFFFD8000007000001E000003C000007800000F000001E0028
:200AC0000003C000007800000F000001E000003C000007800000F000001E000003C0000057
:200AE000787FFFF71FFFFF47FFFFF07FFFFC001FFFFF07FFFFF17FFFFC77FFFF0F0000012B
:200B0000E000003C000007800000F000001E000003C000007800000F000001E000003C00BD
:200B20000007800000F000001E000003C000007000000DFFFFF07FFFFF37FFFFDF0000075A
:200B4000F00001FE00003FC00007F80000FF00001FE00003FC00007F80000FF00001FE00AE
:200B6000003FC00007F80000FF00001FE00003FC00007F7FFFF75FFFFF47FFFFF07FFFFC7A
:200B8000001FFFFF07FFFFF17FFFFD77FFFF7F00001FE00003FC00007F80000FF00001FED8
:200BA00000003FC00007F80000FF00001FE00003FC00007F80000FF00001FE00003FC0003E
:200BC00007F000007C00000600000000000018000007000001E000003C000007800000F0E9
:200BE00000001E000003C000007800000F000001E000003C000007800000F000001E0000DB
:200C000003C0000078000007000000401FFFFF07FFFFF17FFFFD77FFFF7F00001FE00003CE
:200C2000FC00007F80000FF00001FE00003FC00007F80000FF00001FE00003FC00007F80C1
:200C4000000FF00001FE00003FC00007F000007DFFFFF67FFFFF37FFFFDF000007F00001A6
:200C6000FE00003FC00007F80000FF00001FE00003FC00007F80000FF00001FE00003FC07F
:200C80000007F80000FF00001FE00003FC00007F7FFFF75FFFFF47FFFFF07FFFFC001FFF3A
:200CA000FF07FFFFF17FFFFD77FFFF7F00001FE00003FC00007F80000FF00001FE00003F96
:200CC000C00007F80000FF00001FE00003FC00007F80000FF00001FE00003FC00007F00065
:200CE000007DFFFFF67FFFFF07FFFFD8000007000001E000003C000007800000F000001E70
:200D0000000003C000007800000F000001E000003C000007800000F000001E000003C00014
:200D200000787FFFF71FFFFF47FFFFF07FFFFC00F7FFF700000000000000033FFFF880FF55
:200D4000F00600C0180300600C0180300600C0180300600C0180300600C0180300600C0159
:200D600080300600FFF0FFF00600C0180300600C0180300600C0180300600C0180300600DD
:200D8000C0180300600C0180300600FFF0FFF00600C0180300600C0180300600C018030098
:200DA000600C0180300600C0180300600C0180300600FFF0FFF00600C0180300600C018066
:200DC000300600C0180300600C0180300600C0180300600C0180300600FFF0FFF00600C03D
:200DE000180300600C0180300600C0180300600C0180300600C0180300600C0180300600B9
:200E0000FFF0FFF00600C0180300600C0180300600C0180300600C0180300600C018030017
:200E2000600C0180300600FFF01FFFFF07FFFFF17FFFFD77FFFF7F00001FE00003FC000020
:200E40007F80000FF00001FE00003FC00007F80000FF00001FE00003FC00007F80000FF09C
:200E60000001FE00003FC00007F000007DFFFFF67FFFFF37FFFFDF000007F00001FE000085
:200E80003FC00007F80000FF00001FE00003FC00007F80000FF00001FE00003FC00007F85C
:200EA0000000FF00001FE00003FC00007F000007400000404000001C000003C00000780098
:200EC000000F000001E000003C000007800000F000001E000003C000007800000F00000106
:200EE000E000003C000007800000F000001C0000037FFFFC1FFFFFCDFFFFF7C00001FC002A
:200F0000007F80000FF00001FE00003FC00007F80000FF00001FE00003FC00007F80000FCB
:200F2000F00001FE00003FC00007F80000FF00001FDFFFFDD7FFFFD1FFFFFC1FFFFF00000E
:200F400000000FFFFF8FFFFFFBFFFFEE000007800003C00001E00000F000007800003C0041
:200F6000001E00000F000007800003C00001E00000F000007800003C00001E00000EFFFF4B
:200F8000E2FFFFF8FFFFFE3FFFFE0000004000001C000007800000F000001E000003C0008D
:200FA000007800000F000001E000003C000007800000F000001E000003C000007800000FAE
:200FC000000001E000001C7FFFFD9FFFFFCDFFFFF7C00001FC00007F80000FF00001FE0080
:200FE000003FC00007F80000FF00001FE00003FC00007F80000FF00001FE00003FC00007F3
:20100000F80000FF00001FDFFFFDD7FFFFD1FFFFFC1FFFFF001FFFFF1FFFFFD7FFFFDDFF37
:20102000FFCF000007800003C00001E00000F000007800003C00001E00000F00000780005F
:2010400003C00001E00000F000007800003C00001C00000DFFFFF1FFFFFF7FFFFDC00000F8
:20106000F000007800003C00001E00000F000007800003C00001E00000F000007800003CD0
:2010800000001E00000F000007800003C00001DFFFFC5FFFFF1FFFFFC7FFFFC01FFFFF1FC3
:2010A000FFFFD7FFFFDDFFFFCF000007800003C00001E00000F000007800003C00001E00C6
:2010C000000F000007800003C00001E00000F000007800003C00001C00000DFFFFF1FFFF1C
:2010E000FF7FFFFDC00000F000007800003C00001E00000F000007800003C00001E00000BA
:20110000F000007800003C00001E00000F000007800003C00001C00000400000001FFFFF96
:2011200007FFFFF17FFFFC77FFFF0F000001E000003C000007800000F000001E000003C046
:2011400000007800000F000001E000003C000007800000F000001E000003C0000070000023
:201160000C0000000000003000001F000007F00001FE00003FC00007F80000FF00001FE022
:201180000003FC00007F80000FF00001FE00003FC00007F80000FF00001FE00003FC000058
:2011A0007F7FFFF75FFFFF47FFFFF07FFFFC004000001C000003C000007800000F00000188
:2011C000E000003C000007800000F000001E000003C000007800000F000001E000003C00F7
:2011E0000007800000F000001C0000037FFFFC1FFFFFCDFFFFF7C00001FC00007F80000F35
:20120000F00001FE00003FC00007F80000FF00001FE00003FC00007F80000FF00001FE00E7
:20122000003FC00007F80000FF00001FC00001D000001037FFFFFFFFFFFFFFF720000000AA
:201240004000001C000007800000F000001E000003C000007800000F000001E000003C0036
:201260000007800000F000001E000003C000007800000F000001E000001C00000180000011
:201280000C000007C00001FC00007F80000FF00001FE00003FC00007F80000FF00001FE085
:2012A0000003FC00007F80000FF00001FE00003FC00007F80000FF00001FDFFFFDD7FFFF66
:2012C000D1FFFFFC1FFFFF001FFFFF07FFFFF17FFFFC77FFFF0F000001E000003C000007F1
:2012E000800000F000001E000003C000007800000F000001E000003C000007800000F00082
:20130000001E000003C000007000000DFFFFF07FFFFF37FFFFDF000007F00001FE00003FBB
:20132000C00007F80000FF00001FE00003FC00007F80000FF00001FE00003FC00007F800F6
:2013400000FF00001FE00003FC00007F000007400000404000007000003C00001E00000F71
:20136000000007800003C00001E00000F000007800003C00001E00000F000007800003C027
:201380000001E00000F000007000003000000000000C000007000003C00001E00000F00035
:2013A000007800003C00001E00000F000007800003C00001E00000F000007800003C00007D
:2013C0001E00000F0000077FFFF17FFFFC7FFFFF1FFFFF001FFFFF07FFFFF17FFFFD77FF52
:2013E000FF7F00001FE00003FC00007F80000FF00001FE00003FC00007F80000FF00001F58
:20140000E00003FC00007F80000FF00001FE00003FC00007F000007C000006000000300048
:20142000001F000007F00001FE00003FC00007F80000FF00001FE00003FC00007F80000F8E
:20144000F00001FE00003FC00007F80000FF00001FE00003FC00007F00000740000040009C
:20146000000003FFFFE0FFFFFE6FFFFFBE00000FE00003FC00007F80000FF00001FE000079
:201480003FC00007F80000FF00001FE00003FC00007F80000FF00001FE00003FC00007F856
:2014A0000000FE00000E8000008000000003FFFFE0FFFFFE6FFFFFBE00000FE00003FC002A
:2014C000007F80000FF00001FE00003FC00007F80000FF00001FE00003FC00007F80000F06
:2014E000F00001FE00003FC00007F80000FEFFFFEEBFFFFE8FFFFFE0FFFFF81FFFFF07FFD3
:20150000FFF17FFFFD77FFFF7F00001FE00003FC00007F80000FF00001FE00003FC000076B
:20152000F80000FF00001FE00003FC00007F80000FF00001FE00003FC00007F000007DFF47
:20154000FFF67FFFFF37FFFFC7000000F000001E000003C000007800000F000001E00000E4
:201560003C000007800000F000001E000003C000007800000F000001E000003C000007002C
:201580000000400000001FFFFF07FFFFF17FFFFD77FFFF7F00001FE00003FC00007F80008C
:2015A0000FF00001FE00003FC00007F80000FF00001FE00003FC00007F80000FF00001FE35
:2015C00000003FC00007F000007DFFFFF67FFFFF07FFFFD8000007000001E000003C000026
:2015E00007800000F000001E000003C000007800000F000001E000003C000007800000F078
:2016000000001E000003C0000078000007000000400000000FFFFF8FFFFFFBFFFFEE0000A9
:2016200007800003C00001E00000F000007800003C00001E00000F000007800003C0000163
:20164000E00000F000007800003C00001E00000E0000020000004000001C000003C00000B9
:201660007800000F000001E000003C000007800000F000001E000003C000007800000F00E7
:201680000001E000003C000007800000F000001C0000037FFFFC1FFFFFC1FFFFF60000014A
:2016A000C000007800000F000001E000003C000007800000F000001E000003C000007800F6
:2016C000000F000001E000003C000007800000F000001E1FFFFDC7FFFFD1FFFFFC1FFFFF81
:2016E000004000007000003C00001E00000F000007800003C00001E00000F000007800003E
:201700003C00001E00000F000007800003C00001E00000F0000070000037FFFFC7FFFFFDDE
:20172000FFFFF7000003C00001E00000F000007800003C00001E00000F000007800003C0F5
:201740000001E00000F000007800003C00001E00000F0000077FFFF17FFFFC7FFFFF1FFF4C
:20176000FF00C000007C00001FC00007F80000FF00001FE00003FC00007F80000FF0000154
:20178000FE00003FC00007F80000FF00001FE00003FC00007F80000FF00001FDFFFFDD7FFA
:2017A000FFFD1FFFFFC1FFFFF04000005C00001FC00007F80000FF00001FE00003FC0000EA
:2017C0007F80000FF00001FE00003FC00007F80000FF00001FE00003FC00007F80000FF013
:2017E0000001FC00001F0000018000000C000007C00001FC00007F80000FF00001FE00007F
:201800003FC00007F80000FF00001FE00003FC00007F80000FF00001FE00003FC00007F8D2
:201820000000FF00001FDFFFFDD7FFFFD1FFFFFC1FFFFF004000005C00001FC00007F80078
:2018400000FF00001FE00003FC00007F80000FF00001FE00003FC00007F80000FF00001F72
:20186000E00003FC00007F80000FF00001FC00001F7FFFFD9FFFFFCDFFFFF7C00001FC00D8
:20188000007F80000FF00001FE00003FC00007F80000FF00001FE00003FC00007F80000F42
:2018A000F00001FE00003FC00007F80000FF00001FDFFFFDD7FFFFD1FFFFFC1FFFFF004045
:2018C00000005C00001FC00007F80000FF00001FE00003FC00007F80000FF00001FE0000D4
:2018E0003FC00007F80000FF00001FE00003FC00007F80000FF00001FC00001F7FFFFD9FB9
:20190000FFFFCDFFFFF7C00001FC00007F80000FF00001FE00003FC00007F80000FF000050
:201920001FE00003FC00007F80000FF00001FE00003FC00007F80000FF00001FC00001D0FF
:201940000000104000005C00001FC00007F80000FF00001FE00003FC00007F80000FF00002
:2019600001FE00003FC00007F80000FF00001FE00003FC00007F80000FF00001FC00001F53
:201980007FFFFD9FFFFFC1FFFFF6000001C000007800000F000001E000003C00000780008E
:2019A00000F000001E000003C000007800000F000001E000003C000007800000F000001E1D
:2019C0001FFFFDC7FFFFD1FFFFFC1FFFFF001FFFFF07FFFFF07FFFFD07FFFF7000001E001F
:2019E0000003C000007800000F000001E000003C000007800000F000001E000003C0000028
:201A00007800000F000001E000003C0000078000007000000600000030000007000000F0FE
:201A200000001E000003C000007800000F000001E000003C000007800000F000001E00008C
:201A400003C000007800000F000001E000003C0000077FFFF05FFFFF07FFFFF07FFFFC00DE
:201A6000FFF00600C0180300600C0180300600C0180300600C0180300600C0180300600C2E
:201A80000180300600FFF0FFF00600C0180300600C0180300600C0180300600C01803006AF
:201AA00000C0180300600C0180300600FFF0FFF00600C0180300600C0180300600C018036B
:201AC00000600C0180300600C0180300600C0180300600FFF0FFF00600C0180300600C01B9
:201AE00080300600C0180300600C0180300600C0180300600C0180300600FFF03FFFF8FF10
:201B0000FFFBFFFFFBFFFFE0FFF00600C0180300600C0180300600C0180300600C01803009
:201B20000600C0180300600C0180300600FFF01FFFFF07FFFFF17FFFFD77FFFF7F00001F11
:201B4000E00003FC00007F80000FF00001FE00003FC00007F80000FF00001FE00003FC00AE
:201B6000007F80000FF00001FE00003FC00007F000007DFFFFF67FFFFF37FFFFDF00000769
:201B8000F00001FE00003FC00007F80000FF00001FE00003FC00007F80000FF00001FE005E
:201BA000003FC00007F80000FF00001FE00003FC00007F000007400000404000001C0000C8
:201BC00003C000007800000F000001E000003C000007800000F000001E000003C0000078CE
:201BE00000000F000001E000003C000007800000F000001C0000037FFFFC1FFFFFCDFFFFC1
:201C0000F7C00001FC00007F80000FF00001FE00003FC00007F80000FF00001FE00003FC18
:201C200000007F80000FF00001FE00003FC00007F80000FF00001FDFFFFDD7FFFFD1FFFF0C
:201C4000FC1FFFFF000000000FFFFF8FFFFFFBFFFFEE000007800003C00001E00000F000CF
:201C6000007800003C00001E00000F000007800003C00001E00000F000007800003C0000B4
:201C80001E00000EFFFFE2FFFFF8FFFFFE3FFFFE0000004000001C000007800000F0000037
:201CA0001E000003C000007800000F000001E000003C000007800000F000001E000003C047
:201CC00000007800000F000001E000001C7FFFFD9FFFFFCDFFFFF7C00001FC00007F8000EA
:201CE0000FF00001FE00003FC00007F80000FF00001FE00003FC00007F80000FF00001FEEE
:201D000000003FC00007F80000FF00001FDFFFFDD7FFFFD1FFFFFC1FFFFF001FFFFF1FFFD4
:201D2000FFD7FFFFDDFFFFCF000007800003C00001E00000F000007800003C00001E000038
:201D40000F000007800003C00001E00000F000007800003C00001C00000DFFFFF1FFFFFF90
:201D60007FFFFDC00000F000007800003C00001E00000F000007800003C00001E00000F03C
:201D800000007800003C00001E00000F000007800003C00001DFFFFC5FFFFF1FFFFFC7FFFD
:201DA000FFC01FFFFF1FFFFFD7FFFFDDFFFFCF000007800003C00001E00000F00000780018
:201DC000003C00001E00000F000007800003C00001E00000F000007800003C00001C0000AF
:201DE0000DFFFFF1FFFFFF7FFFFDC00000F000007800003C00001E00000F00000780000354
:201E0000C00001E00000F000007800003C00001E00000F000007800003C00001C000004005
:201E20000000001FFFFF07FFFFF17FFFFC77FFFF0F000001E000003C000007800000F000FD
:201E4000001E000003C000007800000F000001E000003C000007800000F000001E00000365
:201E6000C000007000000C0000000000003000001F000007F00001FE00003FC00007F800E3
:201E800000FF00001FE00003FC00007F80000FF00001FE00003FC00007F80000FF00001F2C
:201EA000E00003FC00007F7FFFF75FFFFF47FFFFF07FFFFC004000001C000003C0000078AC
:201EC00000000F000001E000003C000007800000F000001E000003C000007800000F0000F7
:201EE00001E000003C000007800000F000001C0000037FFFFC1FFFFFCDFFFFF7C00001FC19
:201F000000007F80000FF00001FE00003FC00007F80000FF00001FE00003FC00007F8000CA
:201F20000FF00001FE00003FC00007F80000FF00001FC00001D000001037FFFFFFFFFFFFB5
:201F4000FFF7200000004000001C000007800000F000001E000003C000007800000F000030
:201F600001E000003C000007800000F000001E000003C000007800000F000001E000001C68
:201F80000000018000000C000007C00001FC00007F80000FF00001FE00003FC00007F800F5
:201FA00000FF00001FE00003FC00007F80000FF00001FE00003FC00007F80000FF00001F0B
:201FC000DFFFFDD7FFFFD1FFFFFC1FFFFF001FFFFF07FFFFF17FFFFC77FFFF0F000001E077
:201FE00000003C000007800000F000001E000003C000007800000F000001E000003C0000A9
:2020000007800000F000001E000003C000007000000DFFFFF07FFFFF37FFFFDF000007F075
:202020000001FE00003FC00007F80000FF00001FE00003FC00007F80000FF00001FE0000A9
:202040003FC00007F80000FF00001FE00003FC00007F000007400000404000007000003C93
:2020600000001E00000F000007800003C00001E00000F000007800003C00001E00000F0037
:202080000007800003C00001E00000F000007000003000000000000C000007000003C000AF
:2020A00001E00000F000007800003C00001E00000F000007800003C00001E00000F0000053
:2020C0007800003C00001E00000F0000077FFFF17FFFFC7FFFFF1FFFFF001FFFFF07FFFF73
:2020E000F17FFFFD77FFFF7F00001FE00003FC00007F80000FF00001FE00003FC00007F887
:202100000000FF00001FE00003FC00007F80000FF00001FE00003FC00007F000007C000053
:20212000060000003000001F000007F00001FE00003FC00007F80000FF00001FE00003FC59
:2021400000007F80000FF00001FE00003FC00007F80000FF00001FE00003FC00007F000008
:20216000074000004000000003FFFFE0FFFFFE6FFFFFBE00000FE00003FC00007F80000FD4
:20218000F00001FE00003FC00007F80000FF00001FE00003FC00007F80000FF00001FE0058
:2021A000003FC00007F80000FE00000E8000008000000003FFFFE0FFFFFE6FFFFFBE00000D
:2021C0000FE00003FC00007F80000FF00001FE00003FC00007F80000FF00001FE00003FC19
:2021E00000007F80000FF00001FE00003FC00007F80000FEFFFFEEBFFFFE8FFFFFE0FFFFD3
:20220000F81FFFFF07FFFFF17FFFFD77FFFF7F00001FE00003FC00007F80000FF00001FE49
:2022200000003FC00007F80000FF00001FE00003FC00007F80000FF00001FE00003FC000A7
:2022400007F000007DFFFFF67FFFFF37FFFFC7000000F000001E000003C000007800000F45
:20226000000001E000003C000007800000F000001E000003C000007800000F000001E00081
:20228000003C000007000000400000001FFFFF07FFFFF17FFFFD77FFFF7F00001FE0000337
:2022A000FC00007F80000FF00001FE00003FC00007F80000FF00001FE00003FC00007F802B
:2022C000000FF00001FE00003FC00007F000007DFFFFF67FFFFF07FFFFD800000700000137
:2022E000E000003C000007800000F000001E000003C000007800000F000001E000003C00C6
:202300000007800000F000001E000003C0000078000007000000400000000FFFFF8FFFFF0C
:20232000FBFFFFEE000007800003C00001E00000F000007800003C00001E00000F000007B3
:20234000800003C00001E00000F000007800003C00001E00000E0000020000004000001C2B
:20236000000003C000007800000F000001E000003C000007800000F000001E000003C0009E
:20238000007800000F000001E000003C000007800000F000001C0000037FFFFC1FFFFFC1AB
:2023A000FFFFF6000001C000007800000F000001E000003C000007800000F000001E00002F
:2023C00003C000007800000F000001E000003C000007800000F000001E1FFFFDC7FFFFD150
:2023E000FFFFFC1FFFFF004000007000003C00001E00000F000007800003C00001E0000082
:20240000F000007800003C00001E00000F000007800003C00001E00000F000007000003729
:20242000FFFFC7FFFFFDFFFFF7000003C00001E00000F000007800003C00001E00000F0072
:202440000007800003C00001E00000F000007800003C00001E00000F0000077FFFF17FFF8C
:20246000FC7FFFFF1FFFFF00C000007C00001FC00007F80000FF00001FE00003FC00007F30
:2024800080000FF00001FE00003FC00007F80000FF00001FE00003FC00007F80000FF000C5
:2024A00001FDFFFFDD7FFFFD1FFFFFC1FFFFF04000005C00001FC00007F80000FF00001F64
:2024C000E00003FC00007F80000FF00001FE00003FC00007F80000FF00001FE00003FC0025
:2024E000007F80000FF00001FC00001F0000018000000C000007C00001FC00007F80000F63
:20250000F00001FE00003FC00007F80000FF00001FE00003FC00007F80000FF00001FE00D4
:20252000003FC00007F80000FF00001FDFFFFDD7FFFFD1FFFFFC1FFFFF004000005C00004B
:202540001FC00007F80000FF00001FE00003FC00007F80000FF00001FE00003FC00007F8A5
:202560000000FF00001FE00003FC00007F80000FF00001FC00001F7FFFFD9FFFFFCDFFFF61
:20258000F7C00001FC00007F80000FF00001FE00003FC00007F80000FF00001FE00003FC8F
:2025A00000007F80000FF00001FE00003FC00007F80000FF00001FDFFFFDD7FFFFD1FFFF83
:2025C000FC1FFFFF004000005C00001FC00007F80000FF00001FE00003FC00007F80000F5D
:2025E000F00001FE00003FC00007F80000FF00001FE00003FC00007F80000FF00001FC00F6
:20260000001F7FFFFD9FFFFFCDFFFFF7C00001FC00007F80000FF00001FE00003FC0000701
:20262000F80000FF00001FE00003FC00007F80000FF00001FE00003FC00007F80000FF00AB
:20264000001FC00001D00000104000005C00001FC00007F80000FF00001FE00003FC000043
:202660007F80000FF00001FE00003FC00007F80000FF00001FE00003FC00007F80000FF064
:202680000001FC00001F7FFFFD9FFFFFC1FFFFF6000001C000007800000F000001E0000028
:2026A0003C000007800000F000001E000003C000007800000F000001E000003C000007805B
:2026C0000000F000001E1FFFFDC7FFFFD1FFFFFC1FFFFF001FFFFF07FFFFF07FFFFD07FF91
:2026E000FF7000001E000003C000007800000F000001E000003C000007800000F000001E51
:20270000000003C000007800000F000001E000003C00000780000070000006000000300025
:202720000007000000F000001E000003C000007800000F000001E000003C00000780000096
:20274000F000001E000003C000007800000F000001E000003C0000077FFFF05FFFFF07FF2C
:20276000FFF07FFFFC00FFF00600C0180300600C0180300600C0180300600C0180300600FF
:20278000C0180300600C0180300600FFF0FFF00600C0180300600C0180300600C01803007E
:2027A000600C0180300600C0180300600C0180300600FFF0FFF00600C0180300600C01804C
:2027C000300600C0180300600C0180300600C0180300600C0180300600FFF0FFF00600C023
:2027E000180300600C0180300600C0180300600C0180300600C0180300600C01803006009F
:20280000FFF0000001010800000100010120000002000A1A0E01E723000A1A0E01E74400FF
:202820000A1A0E01E765000A1A0E01E786000A1A0E01E7A7000A1A0E01E7C8000A1A0E01A3
:20284000E7E9000A1A0E01E70A010A1A0E01E72B010A1A0E01E74C010A1A0E01E76D01143A
:20286000032006EC7501040500FEFC78010A1A0E01E7990118272004DA0E0204232018DC15
:20288000200218272004DA950216272006DA010318232004DC6A0318272004DADF031827FB
:2028A0002004DA540418252004DAC30418272004DA380518272004DAAD0505140801E4BA97
:2028C000050A1A0E01E7DB050A1A0E01E7FC050A1A0E01E71D060A1A0E01E73E060A1A0E11
:2028E00001E75F060A1A0E01E7800618252004DAEF0618252004DC5E0716152004EC98073F
:2029000018252004DC070816272004DA730816252004DAD90818272004DA4E0918232004A8
:20292000DCB70904112018EEC00918252004DC2F0A18252004DA9E0A16252004DC040B183C
:20294000252004DA730B18132004ECAC0B18152004ECEB0B18252004DA5A0C18252004DAD5
:20296000C90C16132004ECFE0C18252004DC6D0D16252004DCD30D18132004EE0C0E1825D9
:202980002004DC7B0E18252004DCEA0E18232004DC530F18252004DCC20F18272004DA375A
:2029A000100A1A0E01E758100A1A0E01E779100A1A0E01E79A100A1A0E01E7BB1014042001
:2029C00006FDC5100A1A0E01E7E61018252004DA551118252004DCC41116152004ECFE1112
:2029E00018252004DC6D1216272004DAD91216252004DA3F1318272004DAB4131823200407
:202A0000DC1D1404112018EE261418252004DC951418252004DA041516252004DC6A151828
:202A2000252004DAD91518132004EC121618152004EC511618252004DAC01618252004DA32
:202A40002F1716132004EC641718252004DCD31716252004DC391818132004EE72181825C5
:202A60002004DCE11818252004DC501918232004DCB91918252004DC281A18272004DA9D51
:202A80001A0A1A0E01E7BE1A0A1A0E01E7DF1A0A1A0E01E7001B0A1A0E01E70000FFE018D1
:202AA000060180601806018060180601806018060180601806018060180601807FF0FFE046
:202AC00018060180601806018060180601806018060180601806018060180601807FF0FFEE
:202AE000E018060180601806018060180601806018060180601806018060180601807FF0ED
:202B0000FFE018060180601806018060180601806018060180601806018060180601807FBD
:202B2000F0FFE018060180601806018060180601806018060180601806018060180601802C
:202B40007FF0FFE0180601806018060180601806018060180601806018060180601806010D
:202B6000807FF0FFE01806018060180601806018060180601806018060180601806018066E
:202B800001807FF0FFE0180601806018060180601806018060180601806018060180601853
:202BA0000601807FF0FFE01806018060180601806018060180601806018060180601806045
:202BC000180601807FF0FFE01806018060180601806018060180601806018060180601806D
:202BE00060180601807FF0FFE018060180601806018060180601806018060180601806016D
:202C00008060180601807FF07FFFEFFFFF7FFFE06FFF60FFE018060180601806018060183A
:202C20000601806018060180601806018060180601807FF03FFFFC3FFFFCDFFFFBEFFFF76F
:202C4000E0000FE0000FE0000FE0000FE0000FE0000FE0000FE0000FE0000FE0000FE0003E
:202C60000FE0000FE0000FE00007C00003000000800003C00007E0000FE0000FE0000FE0C6
:202C8000000FE0000FE0000FE0000FE0000FE0000FE0000FE0000FE0000FE0000FEFFFF7D9
:202CA000DFFFFB3FFFFC3FFFFC37FFFFFFFFFFFFF73037FFFFFFFFFFFFF7303FFFFC3FFF9F
:202CC000FC1FFFFB0FFFF700000F00000F00000F00000F00000F00000F00000F00000F0062
:202CE000000F00000F00000F00000F00000F0000071FFFFB3FFFFC9FFFF8C00000E00000F9
:202D0000E00000E00000E00000E00000E00000E00000E00000E00000E00000E00000E00013
:202D200000E00000EFFFF0DFFFF83FFFFC3FFFFCFFFFF3FFFFC7FFFECFFFF700003C0000D7
:202D4000F00003C0000F00003C0000F00003C0000F00003C0000F00003C0000F00003C0079
:202D60000077FFFEFFFFFC7FFFEC0000700003C0000F00003C0000F00003C0000F00003CFF
:202D80000000F00003C0000F00003C0000F00003CFFFF77FFFEFFFFFCFFFFF00C00003E0A2
:202DA0000007E0000FE0000FE0000FE0000FE0000FE0000FE0000FE0000FE0000FE0000FB6
:202DC000E0000FE0000FE0000FE00007DFFFFB3FFFFC1FFFFB00000700000F00000F0000EE
:202DE0000F00000F00000F00000F00000F00000F00000F00000F00000F00000F00000F002E
:202E000000070000033FFFFC3FFFFCDFFFF8EFFFF0E00000E00000E00000E00000E0000020
:202E2000E00000E00000E00000E00000E00000E00000E00000E00000E00000DFFFF83FFF9E
:202E4000FC1FFFFB00000700000F00000F00000F00000F00000F00000F00000F00000F00DE
:202E6000000F00000F00000F00000F00000F0FFFF71FFFFB3FFFFC3FFFFC3FFFFC3FFFFC01
:202E8000DFFFF8EFFFF0E00000E00000E00000E00000E00000E00000E00000E00000E0009E
:202EA00000E00000E00000E00000E00000E00000DFFFF83FFFFC9FFFFBC00007E0000FE073
:202EC000000FE0000FE0000FE0000FE0000FE0000FE0000FE0000FE0000FE0000FE0000F8D
:202EE000E0000FEFFFF7DFFFFB3FFFFC3FFFFC3FFFFC3FFFFCDFFFFBEFFFF7E0000FE000B0
:202F00000FE0000FE0000FE0000FE0000FE0000FE0000FE0000FE0000FE0000FE0000FE06C
:202F2000000FE00007C0000300000000000300000700000F00000F00000F00000F00000F83
:202F400000000F00000F00000F00000F00000F00000F00000F00000F0000070000033FFFB1
:202F6000FC3FFFFCDFFFFBEFFFF7E0000FE0000FE0000FE0000FE0000FE0000FE0000FE0F4
:202F8000000FE0000FE0000FE0000FE0000FE0000FE00007DFFFFB3FFFFC9FFFFBC000071D
:202FA000E0000FE0000FE0000FE0000FE0000FE0000FE0000FE0000FE0000FE0000FE000DB
:202FC0000FE0000FE0000FEFFFF7DFFFFB3FFFFC3FFFFC3FFFFC3FFFFCDFFFFBEFFFF7E0C0
:202FE000000FE0000FE0000FE0000FE0000FE0000FE0000FE0000FE0000FE0000FE0000F6C
:20300000E0000FE0000FE00007DFFFFB3FFFFC1FFFFB00000700000F00000F00000F00008B
:203020000F00000F00000F00000F00000F00000F00000F00000F00000F00000F0FFFF71FD6
:20304000FFFB3FFFFC3FFFFC7BDEF0000000000000007BDEF0FFE0180601806018060180F3
:2030600060180601806018060180601806018060180601807FF0FFE01806018060180601E8
:203080008060180601806018060180601806018060180601807FF0FFE01806018060180649
:2030A000018060180601806018060180601806018060180601807FF0FFE01806018060182E
:2030C00006018060180601806018060180601806018060180601807FF0FFE0180601806020
:2030E0001806018060180601806018060180601806018060180601807FF0FFE01806018048
:20310000601806018060180601806018060180601806018060180601807FF03FFFFC3FFFCD
:20312000FCDFFFFBEFFFF7E0000FE0000FE0000FE0000FE0000FE0000FE0000FE0000FE07D
:20314000000FE0000FE0000FE0000FE0000FE00007DFFFFB3FFFFC9FFFFBC00007E0000F5B
:20316000E0000FE0000FE0000FE0000FE0000FE0000FE0000FE0000FE0000FE0000FE00019
:203180000FE0000FE00007C00003C00000E00000E00000E00000E00000E00000E00000E0A7
:2031A0000000E00000E00000E00000E00000E00000E00000E00000E00000DFFFF83FFFFCFF
:2031C0009FFFFBC00007E0000FE0000FE0000FE0000FE0000FE0000FE0000FE0000FE00037
:2031E0000FE0000FE0000FE0000FE0000FEFFFF7DFFFFB3FFFFC3FFFFC1FFFF8FFFFF9FFC6
:20320000FFB00000E0000380000E0000380000E0000380000E0000380000E0000380000E3C
:203220000000380000E00003BFFFCDFFFF8FFFFF3FFFFC00000300000700000F00000F00FB
:20324000000F00000F00000F00000F00000F00000F00000F00000F00000F00000F00000FC9
:203260000000071FFFFB3FFFFC9FFFFBC00007E0000FE0000FE0000FE0000FE0000FE00009
:203280000FE0000FE0000FE0000FE0000FE0000FE0000FE0000FEFFFF7DFFFFB3FFFFC3F5F
:2032A000FFFC3FFFFCFFFFFDFFFFBBFFFCE0000380000E0000380000E0000380000E000010
:2032C000380000E0000380000E0000380000E0000380000DFFFF8FFFFF9FFFFB00000E006B
:2032E00000380000E0000380000E0000380000E0000380000E0000380000E0000380000ED3
:2033000000003BFFFCDFFFF8FFFFF3FFFFC03FFFFCFFFFFDFFFFBBFFFCE0000380000E0098
:2033200000380000E0000380000E0000380000E0000380000E0000380000E0000380000D93
:20334000FFFF8FFFFF9FFFFB00000E0000380000E0000380000E0000380000E000038000F7
:203360000E0000380000E0000380000E0000380000C000003FFFFC3FFFFCDFFFF8EFFFF076
:20338000E00000E00000E00000E00000E00000E00000E00000E00000E00000E00000E0008D
:2033A00000E00000E00000E00000C00000000000800003C00007E0000FE0000FE0000FE0B6
:2033C000000FE0000FE0000FE0000FE0000FE0000FE0000FE0000FE0000FE0000FEFFFF792
:2033E000DFFFFB3FFFFC3FFFFCC00000E00000E00000E00000E00000E00000E00000E000A0
:2034000000E00000E00000E00000E00000E00000E00000E00000E00000DFFFF83FFFFC9FFD
:20342000FFFBC00007E0000FE0000FE0000FE0000FE0000FE0000FE0000FE0000FE0000F64
:20344000E0000FE0000FE0000FE0000FE00007C0000337FFFFFFFFFFFFF7300000030000AB
:203460000700000F00000F00000F00000F00000F00000F00000F00000F00000F00000F00AF
:20348000000F00000F00000F000007000003000000800003C00007E0000FE0000FE0000FDE
:2034A000E0000FE0000FE0000FE0000FE0000FE0000FE0000FE0000FE0000FE0000FEFFFC8
:2034C000F7DFFFFB3FFFFC3FFFFC3FFFFC3FFFFCDFFFF8EFFFF0E00000E00000E00000E000
:2034E0000000E00000E00000E00000E00000E00000E00000E00000E00000E00000E000000C
:20350000DFFFF83FFFFC9FFFFBC00007E0000FE0000FE0000FE0000FE0000FE0000FE000C1
:203520000FE0000FE0000FE0000FE0000FE0000FE0000FE00007C00003C0000380000E00E7
:2035400000380000E0000380000E0000380000E0000380000E0000380000E0000380000E70
:203560000000380000C000000000080000300000E0000380000E0000380000E0000380000F
:203580000E0000380000E0000380000E0000380000E00003BFFFCDFFFF8FFFFF3FFFFC3FCA
:2035A000FFFC3FFFFCDFFFFBEFFFF7E0000FE0000FE0000FE0000FE0000FE0000FE0000F8F
:2035C000E0000FE0000FE0000FE0000FE0000FE0000FE00007C00003000000800003C00064
:2035E00007E0000FE0000FE0000FE0000FE0000FE0000FE0000FE0000FE0000FE0000FE08E
:20360000000FE0000FE0000FE00007C000031FFFF83FFFFC9FFFFBC00007E0000FE0000F85
:20362000E0000FE0000FE0000FE0000FE0000FE0000FE0000FE0000FE0000FE0000FE00054
:203640000FE00007C000031FFFF83FFFFC9FFFFBC00007E0000FE0000FE0000FE0000FE065
:20366000000FE0000FE0000FE0000FE0000FE0000FE0000FE0000FE0000FEFFFF7DFFFFB05
:203680003FFFFC3FFFFC3FFFFC3FFFFCDFFFFBEFFFF7E0000FE0000FE0000FE0000FE000E8
:2036A0000FE0000FE0000FE0000FE0000FE0000FE0000FE0000FE0000FE00007DFFFFB3F84
:2036C000FFFC9FFFF8C00000E00000E00000E00000E00000E00000E00000E00000E0000099
:2036E000E00000E00000E00000E00000E00000E00000C000003FFFFC3FFFFCDFFFFBEFFF8F
:20370000F7E0000FE0000FE0000FE0000FE0000FE0000FE0000FE0000FE0000FE0000FE07C
:20372000000FE0000FE0000FE00007DFFFFB3FFFFC1FFFFB00000700000F00000F00000F55
:2037400000000F00000F00000F00000F00000F00000F00000F00000F00000F00000F0000D3
:20376000070000031FFFF8FFFFF9FFFFB00000E0000380000E0000380000E0000380000E6A
:203780000000380000E0000380000E0000380000E0000380000C000000C00000E00000E059
:2037A0000000E00000E00000E00000E00000E00000E00000E00000E00000E00000E0000049
:2037C000E00000E00000E00000DFFFF83FFFFC1FFFFB00000700000F00000F00000F0000EC
:2037E0000F00000F00000F00000F00000F00000F00000F00000F00000F00000F0FFFF71F0F
:20380000FFFB3FFFFC3FFFFCC0000380000E0000380000E0000380000E0000380000E00028
:203820000380000E0000380000E0000380000E0000380000DFFFF8FFFFF9FFFFB00000E0BB
:20384000000380000E0000380000E0000380000E0000380000E0000380000E00003800004D
:20386000E00003BFFFCDFFFF8FFFFF3FFFFC800003C00007E0000FE0000FE0000FE0000F0F
:20388000E0000FE0000FE0000FE0000FE0000FE0000FE0000FE0000FE0000FEFFFF7DFFFFE
:2038A000FB3FFFFC3FFFFCC00003E00007E0000FE0000FE0000FE0000FE0000FE0000FE075
:2038C000000FE0000FE0000FE0000FE0000FE0000FE0000FE00007C0000300000080000312
:2038E000C00007E0000FE0000FE0000FE0000FE0000FE0000FE0000FE0000FE0000FE000BA
:203900000FE0000FE0000FE0000FEFFFF7DFFFFB3FFFFC3FFFFCC00003E00007E0000FE020
:20392000000FE0000FE0000FE0000FE0000FE0000FE0000FE0000FE0000FE0000FE0000F22
:20394000E0000FE00007DFFFFB3FFFFC9FFFFBC00007E0000FE0000FE0000FE0000FE00082
:203960000FE0000FE0000FE0000FE0000FE0000FE0000FE0000FE0000FEFFFF7DFFFFB3FC3
:20398000FFFC3FFFFCC00003E00007E0000FE0000FE0000FE0000FE0000FE0000FE0000FBF
:2039A000E0000FE0000FE0000FE0000FE0000FE0000FE00007DFFFFB3FFFFC9FFFFBC0001A
:2039C00007E0000FE0000FE0000FE0000FE0000FE0000FE0000FE0000FE0000FE0000FE0AA
:2039E000000FE0000FE0000FE00007C00003C00003E00007E0000FE0000FE0000FE0000FCA
:203A0000E0000FE0000FE0000FE0000FE0000FE0000FE0000FE0000FE0000FE00007DFFF7A
:203A2000FB3FFFFC1FFFFB00000700000F00000F00000F00000F00000F00000F00000F00C8
:203A4000000F00000F00000F00000F00000F00000F0FFFF71FFFFB3FFFFC3FFFFC3FFFFC40
:203A60003FFFFC1FFFFB0FFFF700000F00000F00000F00000F00000F00000F00000F000085
:203A80000F00000F00000F00000F00000F00000F000007000003000000800000C00000E0A2
:203AA0000000E00000E00000E00000E00000E00000E00000E00000E00000E00000E0000046
:203AC000E00000E00000EFFFF0DFFFF83FFFFC3FFFFCFFE018060180601806018060180603
:203AE00001806018060180601806018060180601807FF0FFE01806018060180601806018E4
:203B00000601806018060180601806018060180601807FF0FFE018060180601806018060D5
:203B2000180601806018060180601806018060180601807FF0FFE0180601806018060180FD
:203B400060180601806018060180601806018060180601807FF03FFFC7FFFEFFFFFFFFFFFD
:203B6000FFE018060180601806018060180601806018060180601806018060180601807F4D
:203B8000F03FFFFC3FFFFCDFFFFBEFFFF7E0000FE0000FE0000FE0000FE0000FE0000FE089
:203BA000000FE0000FE0000FE0000FE0000FE0000FE0000FE00007DFFFFB3FFFFC9FFFFBC9
:203BC000C00007E0000FE0000FE0000FE0000FE0000FE0000FE0000FE0000FE0000FE000D7
:203BE0000FE0000FE0000FE0000FE00007C00003C00000E00000E00000E00000E00000E01F
:203C00000000E00000E00000E00000E00000E00000E00000E00000E00000E00000E00000E4
:203C2000DFFFF83FFFFC9FFFFBC00007E0000FE0000FE0000FE0000FE0000FE0000FE0009A
:203C40000FE0000FE0000FE0000FE0000FE0000FE0000FEFFFF7DFFFFB3FFFFC3FFFFC1F6A
:203C6000FFF8FFFFF9FFFFB00000E0000380000E0000380000E0000380000E000038000056
:203C8000E0000380000E0000380000E00003BFFFCDFFFF8FFFFF3FFFFC000003000007003E
:203CA000000F00000F00000F00000F00000F00000F00000F00000F00000F00000F00000F5F
:203CC00000000F00000F0000071FFFFB3FFFFC9FFFFBC00007E0000FE0000FE0000FE0005F
:203CE0000FE0000FE0000FE0000FE0000FE0000FE0000FE0000FE0000FE0000FEFFFF7DF8A
:203D0000FFFB3FFFFC3FFFFC3FFFFCFFFFFDFFFFBBFFFCE0000380000E0000380000E000C3
:203D20000380000E0000380000E0000380000E0000380000E0000380000DFFFF8FFFFF9F77
:203D4000FFFB00000E0000380000E0000380000E0000380000E0000380000E0000380000D1
:203D6000E0000380000E00003BFFFCDFFFF8FFFFF3FFFFC03FFFFCFFFFFDFFFFBBFFFCE04E
:203D8000000380000E0000380000E0000380000E0000380000E0000380000E000038000008
:203DA000E0000380000DFFFF8FFFFF9FFFFB00000E0000380000E0000380000E0000380080
:203DC00000E0000380000E0000380000E0000380000E0000380000C000003FFFFC3FFFFC5D
:203DE000DFFFF8EFFFF0E00000E00000E00000E00000E00000E00000E00000E00000E0002F
:203E000000E00000E00000E00000E00000E00000C00000000000800003C00007E0000FE069
:203E2000000FE0000FE0000FE0000FE0000FE0000FE0000FE0000FE0000FE0000FE0000F1D
:203E4000E0000FEFFFF7DFFFFB3FFFFC3FFFFCC00000E00000E00000E00000E00000E00021
:203E600000E00000E00000E00000E00000E00000E00000E00000E00000E00000E00000DFA3
:203E8000FFF83FFFFC9FFFFBC00007E0000FE0000FE0000FE0000FE0000FE0000FE0000F08
:203EA000E0000FE0000FE0000FE0000FE0000FE0000FE00007C0000337FFFFFFFFFFFFF796
:203EC0003000000300000700000F00000F00000F00000F00000F00000F00000F00000F0030
:203EE000000F00000F00000F00000F00000F000007000003000000800003C00007E0000F34
:203F0000E0000FE0000FE0000FE0000FE0000FE0000FE0000FE0000FE0000FE0000FE0006B
:203F20000FE0000FEFFFF7DFFFFB3FFFFC3FFFFC3FFFFC3FFFFCDFFFF8EFFFF0E00000E069
:203F40000000E00000E00000E00000E00000E00000E00000E00000E00000E00000E00000A1
:203F6000E00000E00000DFFFF83FFFFC9FFFFBC00007E0000FE0000FE0000FE0000FE00075
:203F80000FE0000FE0000FE0000FE0000FE0000FE0000FE0000FE0000FE00007C00003C030
:203FA000000380000E0000380000E0000380000E0000380000E0000380000E0000380000E6
:203FC000E0000380000E0000380000C000000000080000300000E0000380000E0000380097
:203FE00000E0000380000E0000380000E0000380000E0000380000E00003BFFFCDFFFF8F74
:20400000FFFF3FFFFC3FFFFC3FFFFCDFFFFBEFFFF7E0000FE0000FE0000FE0000FE0000F8B
:20402000E0000FE0000FE0000FE0000FE0000FE0000FE0000FE0000FE00007C0000300005E
:2040400000800003C00007E0000FE0000FE0000FE0000FE0000FE0000FE0000FE0000FE0BE
:20406000000FE0000FE0000FE0000FE0000FE00007C000031FFFF83FFFFC9FFFFBC000071B
:20408000E0000FE0000FE0000FE0000FE0000FE0000FE0000FE0000FE0000FE0000FE000EA
:2040A0000FE0000FE0000FE00007C000031FFFF83FFFFC9FFFFBC00007E0000FE0000FE0FB
:2040C000000FE0000FE0000FE0000FE0000FE0000FE0000FE0000FE0000FE0000FE0000F7B
:2040E000EFFFF7DFFFFB3FFFFC3FFFFC3FFFFC3FFFFCDFFFFBEFFFF7E0000FE0000FE0009E
:204100000FE0000FE0000FE0000FE0000FE0000FE0000FE0000FE0000FE0000FE0000FE05A
:204120000007DFFFFB3FFFFC9FFFF8C00000E00000E00000E00000E00000E00000E00000CF
:20414000E00000E00000E00000E00000E00000E00000E00000E00000C000003FFFFC3FFF27
:20416000FCDFFFFBEFFFF7E0000FE0000FE0000FE0000FE0000FE0000FE0000FE0000FE02D
:20418000000FE0000FE0000FE0000FE0000FE00007DFFFFB3FFFFC1FFFFB00000700000F2B
:2041A00000000F00000F00000F00000F00000F00000F00000F00000F00000F00000F000069
:2041C0000F00000F0000070000031FFFF8FFFFF9FFFFB00000E0000380000E000038000053
:2041E000E0000380000E0000380000E0000380000E0000380000E0000380000C000000C03E
:204200000000E00000E00000E00000E00000E00000E00000E00000E00000E00000E00000DE
:20422000E00000E00000E00000E00000E00000DFFFF83FFFFC1FFFFB00000700000F0000DF
:204240000F00000F00000F00000F00000F00000F00000F00000F00000F00000F00000F00B9
:20426000000F0FFFF71FFFFB3FFFFC3FFFFCC0000380000E0000380000E0000380000E00A3
:2042800000380000E0000380000E0000380000E0000380000E0000380000DFFFF8FFFFF9C7
:2042A000FFFFB00000E0000380000E0000380000E0000380000E0000380000E0000380009B
:2042C0000E0000380000E00003BFFFCDFFFF8FFFFF3FFFFC800003C00007E0000FE0000F3D
:2042E000E0000FE0000FE0000FE0000FE0000FE0000FE0000FE0000FE0000FE0000FE00088
:204300000FEFFFF7DFFFFB3FFFFC3FFFFCC00003E00007E0000FE0000FE0000FE0000FE016
:20432000000FE0000FE0000FE0000FE0000FE0000FE0000FE0000FE0000FE00007C000034C
:20434000000000800003C00007E0000FE0000FE0000FE0000FE0000FE0000FE0000FE000AA
:204360000FE0000FE0000FE0000FE0000FE0000FEFFFF7DFFFFB3FFFFC3FFFFCC00003E0AE
:204380000007E0000FE0000FE0000FE0000FE0000FE0000FE0000FE0000FE0000FE0000FC0
:2043A000E0000FE0000FE0000FE00007DFFFFB3FFFFC9FFFFBC00007E0000FE0000FE00018
:2043C0000FE0000FE0000FE0000FE0000FE0000FE0000FE0000FE0000FE0000FE0000FEF89
:2043E000FFF7DFFFFB3FFFFC3FFFFCC00003E00007E0000FE0000FE0000FE0000FE0000F25
:20440000E0000FE0000FE0000FE0000FE0000FE0000FE0000FE0000FE00007DFFFFB3FFF26
:20442000FC9FFFFBC00007E0000FE0000FE0000FE0000FE0000FE0000FE0000FE0000FE0C8
:20444000000FE0000FE0000FE0000FE0000FE00007C00003C00003E00007E0000FE0000F5F
:20446000E0000FE0000FE0000FE0000FE0000FE0000FE0000FE0000FE0000FE0000FE00006
:204480000FE00007DFFFFB3FFFFC1FFFFB00000700000F00000F00000F00000F00000F00A8
:2044A000000F00000F00000F00000F00000F00000F00000F00000F0FFFF71FFFFB3FFFFC2C
:2044C0003FFFFC3FFFFC3FFFFC1FFFFB0FFFF700000F00000F00000F00000F00000F0000C5
:2044E0000F00000F00000F00000F00000F00000F00000F00000F00000700000300000080BA
:204500000000C00000E00000E00000E00000E00000E00000E00000E00000E00000E00000FB
:20452000E00000E00000E00000E00000EFFFF0DFFFF83FFFFC3FFFFCFFE0180601806018DD
:2045400006018060180601806018060180601806018060180601807FF0FFE018060180608B
:204560001806018060180601806018060180601806018060180601807FF0FFE018060180B3
:20458000601806018060180601806018060180601806018060180601807FF0FFE0180601B3
:2045A00080601806018060180601806018060180601806018060180601807FF00000000011
:2045C0000500010000020D0602F4040005040601F407000A0C0A00F5160009100A01F32851
:2045E00000100D1001F442000B0D0C01F4540002040401F4550004110601F45E000411060D
:2046000001F4670005050701F46B0006080B03F971000204050200720004010601FC73004D
:2046200002010501007400050D0500F47D00080D0A01F48A00040D0A03F49100090D0A0113
:20464000F4A000080D0A01F4AD00070D0A02F4B900090D0A01F4C800090D0A01F4D7000867
:204660000D0A00F4E400090D0A01F4F300080D0A01F40001020A0501F70301030C0501F814
:20468000080109090B01F8130109040B01FB180109090B01F82301090D0A01F43201111017
:2046A0001201F454010C0D0C00F468010B0D0C01F47A010B0D0D01F48C010B0D0D01F49E29
:2046C00001090D0B01F4AD01080D0B01F4BA010C0D0E01F4CE010B0D0D01F4E001020D054B
:2046E00002F4E401070D0A01F4F0010B0D0C01F40202080D0A01F40F020D0D0F01F4250254
:204700000B0D0D01F437020D0D0E01F44D020A0D0C01F45E020D0E0E01F475020C0D0D01A6
:20472000F489020A0D0C01F49A02090D0B01F4A9020B0D0D01F4BB020B0D0C00F4CD0211B6
:204740000D1100F4E9020C0D0C00F4FD020C0D0C00F411030A0D0B01F4220303110501F4CD
:204760002903050D0500F4320303110500F4390307070801F440030A010A000342030403D2
:204780000500F44403090A0A01F75003090D0A01F45F03080A0901F76903080D0A01F476F1
:2047A00003080A0A01F78003040D0501F48703080E0A01F79503080D0A01F4A203020D044E
:2047C00001F4A60304110400F4AF03090D0901F4BE03020D0401F4C2030D0A0F01F7D303E6
:2047E000080A0A01F7DD03080A0A01F7E703090D0A01F7F603080D0A01F70304050A060182
:20480000F70A04080A0901F71404040C0501F51A04080A0A01F72404090A0900F730040DAF
:204820000A0D00F74104080A0900F74B04090E0900F75B04070A0901F7640404110601F4C4
:204840006D0402110402F4720404110601F47B0407030901F9FFFFF8C0DEF72009864191BC
:20486000FF1304C320C8FF89826190101F14DA3D1E8340781708F47A3533F040203810EC50
:2048800020C620C640C6406C803900013C0277026304630477083C0E0660CC1981E0180FBF
:2048A0000336C2D8730631E3C4FE13266CCCCCC46623108C4663333332664C80257EA500F5
:2048C00030C33F30C30CD6F0C00844211084421108003C6642C3C3C3C3C3C3C342663C1197
:2048E0003F33333333303E31B07830181C1C1C1818100807F83C66C3C303061C0703C3C326
:20490000663C0C187162C9A346FE183060C07F2010080807F38C030180F06C63E01E319897
:20492000780C06F38D83C1E0D06C63E0FF030206040C081818181030303E31B0783C1B18EA
:20494000F8C6C1E0F06C63E03C66C2C3C3C3673B0303C2663CC00030C0000064A00081C7A4
:204960008E0C0780700E0180FF80001FF000700E01C0183871C080003E31B078301818381A
:2049800018180C0000018003F0060E06018600661DBB31CF18C79863CC31E611B399CCF7AB
:2049A000860001800070400FE00600F00F009019819810830C3FC204606606C030FF1833E0
:2049C00003606C0D833FC606C0780F01E06FF81F861981A03C0180300600C0680D831861DB
:2049E000F0FF183303603C0780F01E03C0780F0360CFF0FFE030180C0603FD80C0603018BC
:204A00000FF8FFC0C0C0C0C0FEC0C0C0C0C0C00F830E606603C00C00C1FC03C03603607391
:204A20000F0F10C0780F01E03C0780FFFE03C0780F01E03C06FFFFFFC0060C183060C18338
:204A4000078F1E2780C0D8330C630CC1B83F0730C3186306606C0CC0C0C0C0C0C0C0C0C0EA
:204A6000C0C0C0FFE03F01FC1FE0FD05EC6F637913CD9E6CF1478E3C7180E07C0FC1E83D75
:204A80008798F11E33C3786F07E07C0E0F8183180CC06C01E00F007803C01B01980C60C02C
:204AA000F800FF306C0F03C0F06FF300C0300C0300C0000F8183180CC06C01E00F007803B2
:204AC000C01B01986C60C0FB0008FF8C0EC06C06C06C0CFF8C0EC06C06C06C06C0703F184C
:204AE0006C0F03C01E01F00E00F03C0D863F00FF86030180C06030180C06030180C0C0785E
:204B00000F01E03C0780F01E03C0780F01B061F0C06C0D8110630C610460CC1901603C0701
:204B20000060C18130E19870CC286626211330C8986C4C14340A1A070703038081806063FA
:204B40000C30C1980F00E00600F019019830C60E6060C0360630C30C1981D80F0060060083
:204B6000600600600600FFC060300C060301C0603018060300FFC0FB6DB6DB6DB6E0841044
:204B800084108410841080EDB6DB6DB6DBE03060A244D8A180FFC0C6307E71B0C060F3DBCC
:204BA0000D86C73DC0C060301BCE360F0783C1E0F07C6DE03C66C3C0C0C0C0C3663C03036C
:204BC000033B67C3C3C3C3C3C3673B3C66C3C3FFC0C0C3663C366F66666666603B67C3C32B
:204BE000C3C3C3C3673B0303C67CC0C0C0DEE3C3C3C3C3C3C3C3C3C3FFFFC0300333333359
:204C0000333333E0C06030184C466361F0EC6231986C30FFFFFFC0DEF71CF0C7863C31E181
:204C20008F0C7863C31E18C0DEE3C3C3C3C3C3C3C3C33C66C3C3C3C3C3C3663CDE71B0781F
:204C40003C1E0F0783E36F30180C003B67C3C3C3C3C3C3673B030303DF318C6318C6003EC1
:204C6000E3C0C0E03C07C3E37E66F666666667C3C3C3C3C3C3C3C3C77BC1A098CC4221B063
:204C8000D0281C0C00C61E3891C4CA66D316D0A6871C38C0C6004362361C181C3C26624361
:204CA000C12198CC4261B0D0381C0C0603010300FE0C30C1861820C1FC3666666ECE66669E
:204CC0006630FFFFFFFFC0C666666737666666C06124380000010106000001000101180080
:204CE00000020008130B01EE150008130B01EE280008130B01EE3B0008130B01EE4E000890
:204D0000130B01EE610008130B01EE740008130B01EE870008130B01EE9A0008130B01EE3C
:204D2000AD0008130B01EEC00008130B01EED3000F031804F1D900040400FEFDDB00081318
:204D40000B01EEEE00121D1803E43001031B1812E53B01121D1803E47D01111D1804E4BB0E
:204D600001121B1803E5F801121D1803E43A02121D1803E47C02121C1803E4BB02121D18C5
:204D800003E4FD02121D1803E43F0304100601EB470308130B01EE5A0308130B01EE6D0376
:204DA00008130B01EE800308130B01EE930308130B01EEA60308130B01EEB903121C1803D8
:204DC000E4F803121C1803E5370410101803F15704121C1803E59604101D1803E4D004102C
:204DE0001C1803E40805121D1803E44A05121B1803E58705030D1812F38C05121C1803E569
:204E0000CB05121C1803E40A06101C1803E54206121C1803E48106120F1803F1A306121065
:204E20001803F1C706121C1803E40607121C1803E44507100F1803F16307121C1803E5A281
:204E400007101C1803E5DA07120E1803F3FA07121C1803E53908121C1803E57808121B18AD
:204E600003E5B508121C1803E5F408121D1803E4360908130B01EE490908130B01EE5C0915
:204E800008130B01EE6F0908130B01EE82090F031804FE880908130B01EE9B09121C180326
:204EA000E4DA09121C1803E5190A10101803F1390A121C1803E5780A101D1803E4B20A10C3
:204EC0001C1803E4EA0A121D1803E42C0B121B1803E5690B030D1812F36E0B121C1803E5E9
:204EE000AD0B121C1803E4EC0B101C1803E5240C121C1803E4630C120F1803F1850C1210FE
:204F00001803F1A90C121C1803E4E80C121C1803E4270D100F1803F1450D121C1803E5841F
:204F20000D101C1803E5BC0D120E1803F3DC0D121C1803E51B0E121C1803E55A0E121B1826
:204F400003E5970E121C1803E5D60E121D1803E4180F08130B01EE2B0F08130B01EE3E0FAC
:204F600008130B01EE510F08130B01EE0000FF818181818181818181818181818181818117
:204F8000FFFF8181818181818181818181818181818181FFFF8181818181818181818181F9
:204FA000818181818181FFFF8181818181818181818181818181818181FFFF8181818181D9
:204FC000818181818181818181818181FFFF8181818181818181818181818181818181FF37
:204FE000FF8181818181818181818181818181818181FFFF81818181818181818181818117
:205000008181818181FFFF8181818181818181818181818181818181FFFF81818181818178
:205020008181818181818181818181FFFF8181818181818181818181818181818181FF7FD8
:20504000FDFFFDFFF00FF6FF8181818181818181818181818181818181FF3FFF0FFFCDFFBC
:20506000EF8007E001F8007E001F8007E001F8007E001F8007C001E0003000020003C00129
:20508000F8007E001F8007E001F8007E001F8007E001F8007DFFECFFFC3FFF000FFFFFFF71
:2050A000F61FFFFFFFEC003FFF0FFFC1FFEC00070001C00070001C00070001C00070001C52
:2050C00000070001CFFFB7FFF2FFF8C00038000E00038000E00038000E00038000E0003811
:2050E000000DFFE0FFFC3FFF007FFE3FFF0FFF6000700038001C000E000700038001C00045
:20510000E00070003BFFEFFFF8FFFB00038001C000E000700038001C000E000700038001A4
:20512000CFFF6FFFC7FFE0000030003E001F8007E001F8007E001F8007E001F8007E001F06
:205140000007BFFEDFFFC3FFEC00070001C00070001C00070001C00070001C00070001C08F
:20516000003000003FFF0FFFCDFFE38000E00038000E00038000E00038000E00038000C072
:20518000002FFF87FFF0FFFB0001C00070001C00070001C00070001C00070001C00071FF98
:2051A000ECFFFC3FFF003FFF0FFFCDFFE38000E00038000E00038000E00038000E000380FD
:2051C00000C0002FFF87FFF2FFFBC001F8007E001F8007E001F8007E001F8007E001F800BC
:2051E0007DFFECFFFC3FFF003FFF0FFFCDFFEF8007E001F8007E001F8007E001F8007E002C
:205200001F8007C001E00030000000030001C00070001C00070001C00070001C000700016B
:20522000C00070000C00003FFF0FFFCDFFEF8007E001F8007E001F8007E001F8007E001F31
:205240008007C001EFFFB7FFF2FFFBC001F8007E001F8007E001F8007E001F8007E001F8C3
:20526000007DFFECFFFC3FFF003FFF0FFFCDFFEF8007E001F8007E001F8007E001F8007EAB
:20528000001F8007C001EFFFB7FFF0FFFB0001C00070001C00070001C00070001C00070071
:2052A00001C00071FFECFFFC3FFF006FF6000000006FF6FF818181818181818181818181C3
:2052C0008181818181FFFF8181818181818181818181818181818181FFFF818181818181B6
:2052E0008181818181818181818181FFFF8181818181818181818181818181818181FFFF96
:205300008181818181818181818181818181818181FFFF8181818181818181818181818171
:2053200081818181FF3FFF0FFFCDFFEF8007E001F8007E001F8007E001F8007E001F8007E2
:20534000C001EFFFB7FFF2FFFBC001F8007E001F8007E001F8007E001F8007E001F8007CCD
:20536000000C0000000030000E00038000E00038000E00038000E00038000E00030000BFCF
:20538000FE1FFFCBFFEF0007E001F8007E001F8007E001F8007E001F8007E001F7FFB3FFAE
:2053A000F0FFFC3FFE7FFFBFFEC000E000E000E000E000E000E000E000E000E000DFFE3FCE
:2053C000FF3FFF0000000030001C00070001C00070001C00070001C00070001C00073FFE58
:2053E000DFFFCBFFEF0007E001F8007E001F8007E001F8007E001F8007E001F7FFB3FFF09C
:20540000FFFC3FFF3FFFDFFEE000E000E000E000E000E000E000E000E000C000BFFE7FFF5D
:20542000BFFEC000E000E000E000E000E000E000E000E000E000DFFE3FFF3FFF3FFF3FFF3A
:20544000DFFEE000E000E000E000E000E000E000E000E000C000BFFE7FFFBFFEC000E00037
:20546000E000E000E000E000E000E000E000E000C00000003FFF0FFFCDFFE38000E00038D9
:20548000000E00038000E00038000E00038000C00020000000020003C001F8007E001F8017
:2054A00007E001F8007E001F8007E001F8007DFFECFFFC3FFF00000030000E00038000E0CD
:2054C0000038000E00038000E00038000E00030000BFFE1FFFCBFFEF0007E001F8007E00E8
:2054E0001F8007E001F8007E001F8007E001F0003000007FFFFFFFB00000000030001C0090
:20550000070001C00070001C00070001C00070001C00070000C00008000F0007E001F80025
:205520007E001F8007E001F8007E001F8007E001F7FFB3FFF0FFFC3FFF0FFFCDFFE380005B
:20554000E00038000E00038000E00038000E00038000C0002FFF87FFF2FFFBC001F8007E62
:20556000001F8007E001F8007E001F8007E001F8007C000C00000000C000E000E000E000C7
:20558000E000E000E000E000E000E000C000800000008000C000E000E000E000E000E000EB
:2055A000E000E000E000E000DFFE3FFF3FFF3FFF0FFFCDFFEF8007E001F8007E001F800787
:2055C000E001F8007E001F8007C001E0003000020003C001F8007E001F8007E001F8007EC4
:2055E000001F8007E001F8007C000C00003FFE1FFFCBFFEF0007E001F8007E001F8007E0AC
:2056000001F8007E001F8007E001F0003000003FFE1FFFCBFFEF0007E001F8007E001F805B
:2056200007E001F8007E001F8007E001F7FFB3FFF0FFFC3FFF0FFFCDFFEF8007E001F8008B
:205640007E001F8007E001F8007E001F8007C001EFFFB7FFF2FFF8C00038000E0003800052
:20566000E00038000E00038000E00038000C000000003FFF0FFFCDFFEF8007E001F8007E78
:20568000001F8007E001F8007E001F8007C001EFFFB7FFF0FFFB0001C00070001C000700C4
:2056A00001C00070001C00070001C00070000C00003FFE7FFFBFFEC000E000E000E000E0A1
:2056C00000E000E000E000E000E000C0000000000030000E00038000E00038000E00038040
:2056E00000E00038000E00030000BFFE1FFFC3FFEC00070001C00070001C00070001C000DC
:2057000070001C00070001C7FFB3FFF0FFFC0000C000E000E000E000E000E000E000E000B2
:20572000E000E000C000BFFE7FFFBFFEC000E000E000E000E000E000E000E000E000E00051
:20574000DFFE3FFF3FFF8000F0007E001F8007E001F8007E001F8007E001F8007E001F7F6A
:20576000FB3FFF0FFFC0000030003E001F8007E001F8007E001F8007E001F8007E001F009B
:20578000078000C00008000F0007E001F8007E001F8007E001F8007E001F8007E001F7FFD3
:2057A000B3FFF0FFFC000030003E001F8007E001F8007E001F8007E001F8007E001F0007BE
:2057C000BFFEDFFFCBFFEF0007E001F8007E001F8007E001F8007E001F8007E001F7FFB3EA
:2057E000FFF0FFFC000030003E001F8007E001F8007E001F8007E001F8007E001F0007BF72
:20580000FEDFFFCBFFEF0007E001F8007E001F8007E001F8007E001F8007E001F0003000F1
:2058200000000030003E001F8007E001F8007E001F8007E001F8007E001F0007BFFEDFFF3F
:20584000C3FFEC00070001C00070001C00070001C00070001C00070001C7FFB3FFF0FFFC87
:205860003FFF0FFFC1FFEC00070001C00070001C00070001C00070001C00070001C0003090
:2058800000020000C00038000E00038000E00038000E00038000E00038000DFFE0FFFC3F96
:2058A000FF00FF8181818181818181818181818181818181FFFF8181818181818181818151
:2058C00081818181818181FFFF8181818181818181818181818181818181FFFF81818181B0
:2058E00081818181818181818181818181FF3FFCFFFDFFF8FF818181818181818181818164
:20590000818181818181FF3FFF0FFFCDFFEF8007E001F8007E001F8007E001F8007E001F81
:205920008007C001EFFFB7FFF2FFFBC001F8007E001F8007E001F8007E001F8007E001F8DC
:20594000007C000C0000000030000E00038000E00038000E00038000E00038000E0003002C
:2059600000BFFE1FFFCBFFEF0007E001F8007E001F8007E001F8007E001F8007E001F7FFBB
:20598000B3FFF0FFFC3FFE7FFFBFFEC000E000E000E000E000E000E000E000E000E000DF73
:2059A000FE3FFF3FFF0000000030001C00070001C00070001C00070001C00070001C000772
:2059C0003FFEDFFFCBFFEF0007E001F8007E001F8007E001F8007E001F8007E001F7FFB368
:2059E000FFF0FFFC3FFF3FFFDFFEE000E000E000E000E000E000E000E000E000C000BFFE07
:205A00007FFFBFFEC000E000E000E000E000E000E000E000E000E000DFFE3FFF3FFF3FFF14
:205A20003FFFDFFEE000E000E000E000E000E000E000E000E000C000BFFE7FFFBFFEC000F3
:205A4000E000E000E000E000E000E000E000E000E000C00000003FFF0FFFCDFFE38000E04B
:205A60000038000E00038000E00038000E00038000C00020000000020003C001F8007E0098
:205A80001F8007E001F8007E001F8007E001F8007DFFECFFFC3FFF00000030000E00038028
:205AA00000E00038000E00038000E00038000E00030000BFFE1FFFCBFFEF0007E001F800A0
:205AC0007E001F8007E001F8007E001F8007E001F0003000007FFFFFFFB000000000300048
:205AE0001C00070001C00070001C00070001C00070001C00070000C00008000F0007E0011C
:205B0000F8007E001F8007E001F8007E001F8007E001F7FFB3FFF0FFFC3FFF0FFFCDFFE3FD
:205B20008000E00038000E00038000E00038000E00038000C0002FFF87FFF2FFFBC001F87A
:205B4000007E001F8007E001F8007E001F8007E001F8007C000C00000000C000E000E00043
:205B6000E000E000E000E000E000E000E000C000800000008000C000E000E000E000E00005
:205B8000E000E000E000E000E000DFFE3FFF3FFF3FFF0FFFCDFFEF8007E001F8007E001F48
:205BA0008007E001F8007E001F8007C001E0003000020003C001F8007E001F8007E001F8D5
:205BC000007E001F8007E001F8007C000C00003FFE1FFFCBFFEF0007E001F8007E001F802F
:205BE00007E001F8007E001F8007E001F0003000003FFE1FFFCBFFEF0007E001F8007E002E
:205C00001F8007E001F8007E001F8007E001F7FFB3FFF0FFFC3FFF0FFFCDFFEF8007E001FE
:205C2000F8007E001F8007E001F8007E001F8007C001EFFFB7FFF2FFF8C00038000E0003F4
:205C40008000E00038000E00038000E00038000C000000003FFF0FFFCDFFEF8007E001F890
:205C6000007E001F8007E001F8007E001F8007C001EFFFB7FFF0FFFB0001C00070001C0067
:205C8000070001C00070001C00070001C00070000C00003FFE7FFFBFFEC000E000E000E094
:205CA00000E000E000E000E000E000E000C0000000000030000E00038000E00038000E00FD
:205CC000038000E00038000E00030000BFFE1FFFC3FFEC00070001C00070001C0007000133
:205CE000C00070001C00070001C7FFB3FFF0FFFC0000C000E000E000E000E000E000E000ED
:205D0000E000E000E000C000BFFE7FFFBFFEC000E000E000E000E000E000E000E000E0006B
:205D2000E000DFFE3FFF3FFF8000F0007E001F8007E001F8007E001F8007E001F8007E0042
:205D40001F7FFB3FFF0FFFC0000030003E001F8007E001F8007E001F8007E001F8007E0036
:205D60001F00078000C00008000F0007E001F8007E001F8007E001F8007E001F8007E001C4
:205D8000F7FFB3FFF0FFFC000030003E001F8007E001F8007E001F8007E001F8007E001FE9
:205DA0000007BFFEDFFFCBFFEF0007E001F8007E001F8007E001F8007E001F8007E001F7AF
:205DC000FFB3FFF0FFFC000030003E001F8007E001F8007E001F8007E001F8007E001F00A0
:205DE00007BFFEDFFFCBFFEF0007E001F8007E001F8007E001F8007E001F8007E001F00076
:205E0000300000000030003E001F8007E001F8007E001F8007E001F8007E001F0007BFFE07
:205E2000DFFFC3FFEC00070001C00070001C00070001C00070001C00070001C7FFB3FFF0BE
:205E4000FFFC3FFF0FFFC1FFEC00070001C00070001C00070001C00070001C00070001C0DF
:205E6000003000020000C00038000E00038000E00038000E00038000E00038000DFFE0FFBB
:205E8000FC3FFF00FF8181818181818181818181818181818181FFFF818181818181818132
:205EA000818181818181818181FFFF8181818181818181818181818181818181FFFF8181CA
:205EC000818181818181818181818181818181FF000000000900010000031A0C04E70A000C
:205EE00009090C01E8150013181300E94E00101E1302E68A001D191F01E8E50014191702F5
:205F0000E8240103090702E8280108210C03E7490108210C01E76A010A0A0E02E7770110CA
:205F2000101402F1970103090A03FD9B0108030C02F69E0103040903FDA0010A1A0A00E78C
:205F4000C10110191302E8F30108191304E80C0210191302E83E0211191301E8740210190C
:205F60001301E8A60211191301E8DC0210191302E80E0310191302E8400311191301E8763D
:205F80000310191301E8A80303130903EEB00303180903EEB90311111402F0DE0311091463
:205FA00002F4F20311111402F017040F1A1303E74804201F2401E7C404161A1701E70C05EE
:205FC000131A1703E74A05161A1901E79205141A1803E7D305121A1603E70E06111A1503F1
:205FE000E74606181A1B01E79406131A1903E7D206031A0A04E7DC060E1A1201E70A07145C
:206000001A1803E74B070F1A1403E77C07181A1E03E7CA07141A1A03E70B08191A1B01E7E2
:206020005D08121A1703E79808191C1B01E7F008141A1903E73109141A1701E77209131ABE
:206040001601E7B009131A1903E7EE09151A1701E7330A201A2100E79B0A151A1701E7E002
:206060000A171A1800E72B0B131A1601E7690B06210A02E7820B0A1A0A00E7A30B06210A76
:2060800001E7BC0B0D0D1002E8D20B150213FF05D80B07050901E7DD0B11131301EE060C32
:2060A000101A1402E73A0C10131201EE600C111A1401E7980C10131301EEBE0C071A0A01FD
:2060C000E7D50C101B1301EE0B0D0F1A1302E73C0D031A0802E7460D06220900E7600D104F
:2060E0001A1202E7940D031A0702E79E0D18131C02EED70D0F131302EEFB0D11131301EEC4
:20610000240E10191402EE560E11191401EE8C0E09130C02EEA20E0E131102EEC40E07171B
:206120000A01EAD90E0F131302EEFD0E11131100EE260F19131900EE620F10131100EE88AD
:206140000F111B1100EEC20F0F131101EEE60F08210C01E7071002210903E7101008210C7E
:2061600003E731100F071201F1FFFFFFFFFFFFE9203FFCE3F1F8FC7E3F1F8E82410001C3E3
:20618000803870060E00C1803870070E0FFFF9FFFF3FFFE0E1C01C3803870070E00C183F70
:2061A000FFF7FFFEFFFFC1C3803060060C01C3803870070E00C18003000FC03FF03FF87B53
:2061C0003CF31CE30EE30EE30EE300E300F3007B007F801FF007FC037E030F0307E307E3F2
:2061E00007E307E30F733E7FFC3FF80FE003000300030000000C007800E00FF00600FFC039
:2062000070070E07007038380300C38018061C00E071C003878C001FF8E0007F860001F876
:206220007000000303C000387F800187FE001C387000C381C00E180600E0C0300707038016
:20624000701C380380FFC03803FC0180078001F0007F800FFC01E1E01C0E01C0E01C0E0146
:20626000E1E00E3C00778007F0007C000FE003CF1C7879C703DCE01F8E00F8E00F0E007043
:20628000F00F87C3FC7FFDC3FF0E0FC0F0FFFFFA4006060C0C1818383070707060E0E0E06A
:2062A000E0E0E0E0E0E060707070303818180C0C0603C060303038181C0C0E0E0E060707FF
:2062C00007070707070707060E0E0E0C1C1838303060C00C0300C3B7FFC781E0EC7388408E
:2062E000018001800180018001800180FFFFFFFFFFFF018001800180018001800180018017
:20630000FFF6DAC0FFFFFFFFF000C03018060180C0300C06018060300C0300C06018060310
:2063200000C03018060180C0300007E00FF81FFC3C3C781E700E700EE007E007E007E0072F
:20634000E007E007E007E007E007E007E00F700E700E781E3C3C1FF81FF007E00303070FB1
:206360003FFFFF07070707070707070707070707070707070707E01FF83FFC7C3E700FF000
:206380000FE007E00700070007000F001E003C00F803F007C01F003C00380070006000E0B4
:2063A00000FFFFFFFFFFFF07F007FE07FF8783C380F38039C01CE00E0007000F007F003F4A
:2063C000001FE00078001E00070003F001F800FE00770073E0F8FFF83FF807F00000380018
:2063E00038007800F800F801F803B8033807380E381C381838383870386038E038FFFFFF20
:20640000FFFFFF0038003800380038003800381FFF0FFF8FFFC700038001C000E00070001A
:2064200039F03FFE1FFF8F83E700F0003C000E000700038001C000FC00EF0073C0F0FFF855
:206440003FF807E00003E00FF81FFC3C1E380E700E70006000E000E3E0EFF8FFFCFC3EF07C
:206460000EF00FE007E007E0076007700F700E3C3E3FFC1FF807E0FFFFFFFFFFFF00060043
:206480000E001C001800380070006000E000C001C00180038003800700070007000E000E99
:2064A000000E000C001C001C0007F00FFE0FFF8783C780F38039C01CE00E780F1E0F07FFF7
:2064C00001FF03FFE3E0F9C01DC00FE003F001F800FC00F70073E0F8FFF83FF807F000071C
:2064E000E01FF83FFC7C3C700EF00EE006E007E007E007E00F700F783F3FFF1FF707C70054
:20650000070006000E700E701C783C3FF81FF007C0FFF000000007FF80FFF000000007FF2B
:20652000B6D600008003C007E00FC03F807E00FC01F000E0007C001FC001F8003F8007F0C2
:20654000007E000F000180FFFFFFFFFFFFE0000000000003FFFFFFFFFFFF80800070003EA8
:20656000000FE000FC001FC003F8003F0007800FC01F807F00FC01F803F001C0008000007A
:206580000FC07FE1FFE3C3EF01FC01F803F007000E003800F007C01F007C00E003C0070006
:2065A0000E001C00000000000001C0038007000E000007F800003FFF0000FFFFC001F80F55
:2065C000E003E001F0078000F80F00003C1E00001E3C03E01E380FF38E781E3F0F70381F51
:2065E0000770780F07E0700E07E0700E07E0E00E07E0E01C07E0E01C0EE0E01C0EE0E03848
:206600001CF070783C7078FC78783FDFF0381F0FC03C0000001F0000000F80000007F00E53
:206620000001FFFE00007FFE00001FF00000F80003E0000FC0007F0001DC000778003CE02F
:2066400000E380038F001E1C00707001C1E00E0380380E00E03C07FFF01FFFE0FFFF83C061
:206660000E0E003C7800F1E001C70007BC001EF0003B8000F0FFFC1FFFE3FFFE7003CE00FB
:206680003DC003B80077000EE001DC0073801E7FFF8FFFF1FFFF3800F7000EE000FC001FBC
:2066A0008003F0007E000FC003F800F7FFFCFFFF1FFF8000FF000FFF00FFFE07E07C3E00E6
:2066C00078F000E78003DC000770000380000E0000380000E0000380000E0000380000E043
:2066E000001DC000770003DE000E3C0078F803C1F81F03FFF803FFC003F800FFF80FFFE034
:20670000FFFF0E00F8E003CE001CE000EE000EE000FE0007E0007E0007E0007E0007E0003D
:206720007E0007E0007E000FE000EE000EE001EE003CE00F8FFFF0FFFE0FFF80FFFFBFFFCC
:20674000EFFFFB8000E00038000E00038000E00038000E0003FFFEFFFFBFFFEE00038000D4
:20676000E00038000E00038000E00038000E0003FFFFFFFFFFFFF0FFFFFFFFFFFFFC000E59
:20678000000700038001C000E000700038001FFFCFFFE7FFF38001C000E000700038001C7C
:2067A000000E000700038001C000E000700000007F8003FFE007FFF80F80FC1E003E3C002E
:2067C0000E78000F700007700000E00000E00000E00000E003FFE003FFE003FFE00007F020
:2067E000000770000770000F78000F3C001F1E003F0FC0F707FFE703FFC300FF03E000FC07
:20680000001F8003F0007E000FC001F8003F0007E000FC001F8003FFFFFFFFFFFFFFF800EB
:206820003F0007E000FC001F8003F0007E000FC001F8003F0007E000FC001CFFFFFFFFFF25
:20684000FFFFFFFFFC001C007001C007001C007001C007001C007001C007001C007001C0F7
:2068600007001F807E01F807E01FC0F7879FFE3FF03F00E001EE003CE0078E00F0E01E0E30
:2068800003E0E07C0E0F80E1F00E1E00E3C00E7C00EFE00FCE00F8F00F0780E03C0E03C0DB
:2068A000E01E0E00F0E00F0E0078E003CE003CE001EE000FE001C0038007000E001C00380F
:2068C000007000E001C0038007000E001C0038007000E001C0038007000E001C0038007F3F
:2068E000FFFFFFFFFCF8001FF8001FF8001FFC003FFC003FFC003FEE0077EE0077EE00777B
:20690000E700E7E700E7E700E7E381C7E381C7E381C7E1C387E1C387E1C387E0E707E0E776
:2069200007E0E707E07E07E07E07E07E07E03C07E03C07F0007F0007F8007FC007FC007FDE
